{
  "state_version": 5,
  "difficulty": 3,
  "mining_reward": 25.0,
  "price_oracles": [],
  "latest_prices": {},
  "chain": [
    {
      "index": 0,
      "timestamp": 1772906105.700275,
      "transactions": [],
      "previous_hash": "0000000000000000000000000000000000000000000000000000000000000000",
      "nonce": 0,
      "meta": {},
      "hash": "af56b00cc5a30d4441bb427a5c2a99c41dd488ad460530399db4c542ef44248d"
    },
    {
      "index": 1,
      "timestamp": 1772906126.07279,
      "transactions": [
        {
          "type": "payment",
          "sender": "SYSTEM",
          "recipient": "EVM:0x7ebf6a6ee1634123541bbdcb368636edab0b8de7",
          "amount": 25.0,
          "timestamp": 1772906126.072727,
          "id": "5d82113f31ee98f7a7fe441a2987bbab5915a93683c8c1458f1b697fc6cd89ca"
        }
      ],
      "previous_hash": "af56b00cc5a30d4441bb427a5c2a99c41dd488ad460530399db4c542ef44248d",
      "nonce": 5412,
      "meta": {},
      "hash": "000196d7b9feb2abde260e875a3e316cb96f8270c2d59a5b985e23360644f776"
    },
    {
      "index": 2,
      "timestamp": 1772906142.427464,
      "transactions": [
        {
          "type": "payment",
          "sender": "SYSTEM",
          "recipient": "EVM:0x150aad7b7a53a336e7cef9a1e5efcb5a96e140c4",
          "amount": 25.0,
          "timestamp": 1772906142.42743,
          "id": "9a3eaf11d19c8d9c0d181936f4a2a63e634089346168e92812ce94d6adae5e33"
        }
      ],
      "previous_hash": "000196d7b9feb2abde260e875a3e316cb96f8270c2d59a5b985e23360644f776",
      "nonce": 3541,
      "meta": {},
      "hash": "0009e3112f162b9ffabcb8bf90a18b8257f8ba8cafff8fcf0470d81f3f4a12fe"
    },
    {
      "index": 3,
      "timestamp": 1772906143.0372648,
      "transactions": [
        {
          "id": "4b2e8f641902aa39980d1df47dde39561cc1eec2550a3cd6e76640e1a37a5511",
          "type": "evm_payment",
          "sender": "EVM:0x150aad7b7a53a336e7cef9a1e5efcb5a96e140c4",
          "recipient": "EVM:0x9b06d4e3ec8876f316c35a73a1decceecb1b42e1",
          "amount": 2.0,
          "timestamp": 1772906142.5955799,
          "sender_evm": "0x150aad7b7a53a336e7cef9a1e5efcb5a96e140c4",
          "recipient_evm": "0x9b06d4e3ec8876f316c35a73a1decceecb1b42e1",
          "value_wei": "2000000000000000000",
          "nonce": 0,
          "gas_limit": 21000,
          "gas_price_wei": 2000000000,
          "input": "0x",
          "raw_tx": "0x02f87583012cc980843b9aca008477359400825208949b06d4e3ec8876f316c35a73a1decceecb1b42e1881bc16d674ec8000080c001a010104bb2be7812b72071b21da8c4e0785d7c547bd9ab706e94221a213d408e68a007d243e148d79a1d30f3159a3c44a4015c3feadcdd7e9e15e341624e38a3f9fd",
          "evm_type": 2
        },
        {
          "type": "payment",
          "sender": "SYSTEM",
          "recipient": "EVM:0x150aad7b7a53a336e7cef9a1e5efcb5a96e140c4",
          "amount": 25.0,
          "timestamp": 1772906143.03723,
          "id": "06a2522e065da6cdd308567bde47c9ea037927d0c00b73f4cf2b754fc2e16224"
        }
      ],
      "previous_hash": "0009e3112f162b9ffabcb8bf90a18b8257f8ba8cafff8fcf0470d81f3f4a12fe",
      "nonce": 197,
      "meta": {},
      "hash": "000a398cf418823a4a87723eb1cd95a7f21ec0843f2816e05c6983b5555f4b24"
    }
  ],
  "pending_transactions": []
}