{
  "state_version": 18,
  "consensus": "poa",
  "difficulty": 3,
  "mining_reward": 25.0,
  "validators": [
    "Wb19888885482587a3e3fb841f27e6a02019cbe50"
  ],
  "price_oracles": [],
  "latest_prices": {},
  "chain": [
    {
      "index": 0,
      "timestamp": 1772912252.287937,
      "transactions": [],
      "previous_hash": "0000000000000000000000000000000000000000000000000000000000000000",
      "nonce": 0,
      "meta": {
        "network": "public-payments",
        "consensus": "poa"
      },
      "hash": "0a4b6bfeb24c2f1216f381ec17fd41ac8db5182a30829ee8f91817d506488967"
    },
    {
      "index": 1,
      "timestamp": 1772912504.481007,
      "transactions": [
        {
          "type": "payment",
          "sender": "SYSTEM",
          "recipient": "Wb19888885482587a3e3fb841f27e6a02019cbe50",
          "amount": 25.0,
          "timestamp": 1772912504.4808478,
          "id": "c8a78ddc895412353a6926ed3829a69fdd3c6d18d1cde9853f3c250463df4a25"
        }
      ],
      "previous_hash": "0a4b6bfeb24c2f1216f381ec17fd41ac8db5182a30829ee8f91817d506488967",
      "nonce": 0,
      "meta": {
        "consensus": "poa",
        "validator": "Wb19888885482587a3e3fb841f27e6a02019cbe50"
      },
      "hash": "1dd474dd0b633af31312c315e939965f8232ee3e2e1ccf989dcfa2f163849e75"
    },
    {
      "index": 2,
      "timestamp": 1772912556.952683,
      "transactions": [
        {
          "type": "payment",
          "sender": "Wb19888885482587a3e3fb841f27e6a02019cbe50",
          "recipient": "Weee110841b37ba10f1be9f5e966e4a669f01797a",
          "amount": 10.0,
          "timestamp": 1772912550.322075,
          "id": "494c034fdb79f176205f208c123562141978226c0d99cf6293ad8dc2a52756e3",
          "pubkey": {
            "kty": "ed25519",
            "key": "GJEXAKGlJR+/VlEOmIqv4gLAoOzw0vneX3QO36/lSvM="
          },
          "signature": "GGoU8jmTti0Dun7ew8sRsOvksnubb9HNNxvRQsb6hgc86GVS2sajQ9gGw9ayrJseoLZnjnSY2tLi/FKVEZ59Aw=="
        },
        {
          "type": "payment",
          "sender": "SYSTEM",
          "recipient": "Wb19888885482587a3e3fb841f27e6a02019cbe50",
          "amount": 25.0,
          "timestamp": 1772912556.95228,
          "id": "ad439028d2b00f93f7fd657ba4fe3d073c58729dc363a129559a1a3ea4fb2437"
        }
      ],
      "previous_hash": "1dd474dd0b633af31312c315e939965f8232ee3e2e1ccf989dcfa2f163849e75",
      "nonce": 0,
      "meta": {
        "consensus": "poa",
        "validator": "Wb19888885482587a3e3fb841f27e6a02019cbe50"
      },
      "hash": "a9bbb36345a4daa57bf8264ebfcbaa8e2c5616e4c691a7987f38a1f6b8e8f2ff"
    },
    {
      "index": 3,
      "timestamp": 1772912570.316551,
      "transactions": [
        {
          "type": "payment",
          "sender": "Weee110841b37ba10f1be9f5e966e4a669f01797a",
          "recipient": "W771db0cd32dc35a73a513e7f8d26d70e141d1089",
          "amount": 2.0,
          "timestamp": 1772912563.49085,
          "id": "32e4f50616f4ca1d97e9573704bbc57f7e24a9b02b6e6d417730ebb5aa411588",
          "pubkey": {
            "kty": "ed25519",
            "key": "iuTJk6cELNwBSkpZIEZ5uUmDUfSY0CqVlZDbKL9JUYo="
          },
          "signature": "GMhMiM47g78J+aqSkp+/XI4GeRYbwQuJh1fenLC3o6Wyjm9fPVJh7i+iKFTGI0dfA8I4FK1js+Uj6eWt8oZHCg=="
        },
        {
          "type": "payment",
          "sender": "SYSTEM",
          "recipient": "Wb19888885482587a3e3fb841f27e6a02019cbe50",
          "amount": 25.0,
          "timestamp": 1772912570.3164108,
          "id": "64234516263c861a34e7c4496b4d5e9aba2ff088d21adc27db5792e981582297"
        }
      ],
      "previous_hash": "a9bbb36345a4daa57bf8264ebfcbaa8e2c5616e4c691a7987f38a1f6b8e8f2ff",
      "nonce": 0,
      "meta": {
        "consensus": "poa",
        "validator": "Wb19888885482587a3e3fb841f27e6a02019cbe50"
      },
      "hash": "94cce302f4ed1c3f94637d1d0535f2b7f47817b6003c8b974618b5a21ddf5bfc"
    },
    {
      "index": 4,
      "timestamp": 1772914270.1160588,
      "transactions": [
        {
          "type": "payment",
          "sender": "Wb19888885482587a3e3fb841f27e6a02019cbe50",
          "recipient": "EVM:0x652a0C91CD253cbeFFF5b28599276b62497b3F57",
          "amount": 10.0,
          "timestamp": 1772914063.98518,
          "id": "f44659af9a131f39bfbd75200dc95688d02b1e667a28af5122dc23a56d251e00",
          "pubkey": {
            "kty": "ed25519",
            "key": "GJEXAKGlJR+/VlEOmIqv4gLAoOzw0vneX3QO36/lSvM="
          },
          "signature": "7vYgxXPDXDEZ11Mspfqit3CDOeoh7ewYucHNl0bNiDmA0ljFmXDOkZQa8uRzx36zWuqJ4zuOHGgffdKmc95aBg=="
        },
        {
          "type": "payment",
          "sender": "SYSTEM",
          "recipient": "Wb19888885482587a3e3fb841f27e6a02019cbe50",
          "amount": 25.0,
          "timestamp": 1772914270.115896,
          "id": "0b917234a85c3a43b46b9e4a933b686444f61fa65c382734fdfc9d136dd57045"
        }
      ],
      "previous_hash": "94cce302f4ed1c3f94637d1d0535f2b7f47817b6003c8b974618b5a21ddf5bfc",
      "nonce": 0,
      "meta": {
        "consensus": "poa",
        "validator": "Wb19888885482587a3e3fb841f27e6a02019cbe50"
      },
      "hash": "9a36a112d72084fbd3b944e623f21f8676c930fba63c674fdb7f436a8cae1290"
    },
    {
      "index": 5,
      "timestamp": 1772914930.968195,
      "transactions": [
        {
          "type": "payment",
          "sender": "SYSTEM",
          "recipient": "Wb19888885482587a3e3fb841f27e6a02019cbe50",
          "amount": 25.0,
          "timestamp": 1772914930.968043,
          "id": "8dc266926de12fa52a0c18cef58195358f48073383ac9da233e37e2ff5c1a936"
        }
      ],
      "previous_hash": "9a36a112d72084fbd3b944e623f21f8676c930fba63c674fdb7f436a8cae1290",
      "nonce": 0,
      "meta": {
        "consensus": "poa",
        "validator": "Wb19888885482587a3e3fb841f27e6a02019cbe50"
      },
      "hash": "196d07bb389d977c98a4a24eb3261eb2d80f74e210dddc227a745c24185cfdc8"
    },
    {
      "index": 6,
      "timestamp": 1772915063.1897118,
      "transactions": [
        {
          "type": "payment",
          "sender": "SYSTEM",
          "recipient": "Wb19888885482587a3e3fb841f27e6a02019cbe50",
          "amount": 25.0,
          "timestamp": 1772915063.1893492,
          "id": "3e30ed5f093e420b086f9514882bbc6ea9aa9038f0595058d78928e54c393943"
        }
      ],
      "previous_hash": "196d07bb389d977c98a4a24eb3261eb2d80f74e210dddc227a745c24185cfdc8",
      "nonce": 0,
      "meta": {
        "consensus": "poa",
        "validator": "Wb19888885482587a3e3fb841f27e6a02019cbe50"
      },
      "hash": "1d0907bfc2194bcec78a34c4b12ac828ec68dc22dca7d934518c1c8792355dfc"
    },
    {
      "index": 7,
      "timestamp": 1772915394.9697971,
      "transactions": [
        {
          "type": "payment",
          "sender": "Wb19888885482587a3e3fb841f27e6a02019cbe50",
          "recipient": "EVM:0x652a0c91cd253cbefff5b28599276b62497b3f57",
          "amount": 5.0,
          "timestamp": 1772915328.296343,
          "id": "aa9c73528ea5d63a0f39e5f1b1352b568529a8fc0b80bdb086ebb0d2d70cd7a3",
          "pubkey": {
            "kty": "ed25519",
            "key": "GJEXAKGlJR+/VlEOmIqv4gLAoOzw0vneX3QO36/lSvM="
          },
          "signature": "MNR4jaKuZbWMes6Gad7C13QF9gTxIgbt6Pa4kFFTBXbNvTcQ9xTk9nYLXdIROVyI1aOCuoKwZL6qfH0xumjnCQ=="
        },
        {
          "type": "payment",
          "sender": "SYSTEM",
          "recipient": "Wb19888885482587a3e3fb841f27e6a02019cbe50",
          "amount": 25.0,
          "timestamp": 1772915394.969621,
          "id": "9d6783c3b86bb0924e2dd46c80175164027d526306774815c88b35703273e577"
        }
      ],
      "previous_hash": "1d0907bfc2194bcec78a34c4b12ac828ec68dc22dca7d934518c1c8792355dfc",
      "nonce": 0,
      "meta": {
        "consensus": "poa",
        "validator": "Wb19888885482587a3e3fb841f27e6a02019cbe50"
      },
      "hash": "9e110c15ad0a46b358e1c7c4ccc7682f5dab3accc1f7ef8191db95deb660389d"
    },
    {
      "index": 8,
      "timestamp": 1772915469.6681778,
      "transactions": [
        {
          "id": "e449fb34f1122c57f5acd68ac222cdc0b5977fb52bc9aa5b5e6cf8f1ef9b2451",
          "type": "evm_payment",
          "sender": "EVM:0x652a0c91cd253cbefff5b28599276b62497b3f57",
          "recipient": "EVM:0xcd6b0c718dc5c38c2bfb65c9fcff551c0948248e",
          "amount": 1.0,
          "timestamp": 1772915453.244823,
          "sender_evm": "0x652a0c91cd253cbefff5b28599276b62497b3f57",
          "recipient_evm": "0xcd6b0c718dc5c38c2bfb65c9fcff551c0948248e",
          "value_wei": "1000000000000000000",
          "nonce": 0,
          "gas_limit": 21000,
          "gas_price_wei": 1000000000,
          "input": "0x",
          "raw_tx": "0x02f87583012cc980843b9aca00843b9aca0082520894cd6b0c718dc5c38c2bfb65c9fcff551c0948248e880de0b6b3a764000080c001a019066811acfa27f175e06f741daa3362c6b52b79a1694c963818905f585e5f39a03a7bfc451cbc2aa9887e92d01dead33d3c48b11697e28180eff5303c9f72dea7",
          "evm_type": 2,
          "gas_fee_native": 2.1e-05
        },
        {
          "type": "payment",
          "sender": "SYSTEM",
          "recipient": "Wb19888885482587a3e3fb841f27e6a02019cbe50",
          "amount": 25.000021,
          "timestamp": 1772915469.6681442,
          "id": "f63681cbed537dec7dd0bf55b55d621c006868f16dc0f8cbef65bdaff0ca7ef9"
        }
      ],
      "previous_hash": "9e110c15ad0a46b358e1c7c4ccc7682f5dab3accc1f7ef8191db95deb660389d",
      "nonce": 0,
      "meta": {
        "consensus": "poa",
        "validator": "Wb19888885482587a3e3fb841f27e6a02019cbe50"
      },
      "hash": "8270ecb79295d2433a352bb85e5432bda26ee3ccd407134383945dd535dd1827"
    },
    {
      "index": 9,
      "timestamp": 1772915944.602466,
      "transactions": [
        {
          "id": "61a21860d803d58d61e0d4ff20109fdafa09c7a8d1e1913b020c75b87d835dbd",
          "type": "evm_payment",
          "sender": "EVM:0x652a0c91cd253cbefff5b28599276b62497b3f57",
          "recipient": "EVM:0xcd6b0c718dc5c38c2bfb65c9fcff551c0948248e",
          "amount": 1.0,
          "timestamp": 1772915925.36449,
          "sender_evm": "0x652a0c91cd253cbefff5b28599276b62497b3f57",
          "recipient_evm": "0xcd6b0c718dc5c38c2bfb65c9fcff551c0948248e",
          "value_wei": "1000000000000000000",
          "nonce": 1,
          "gas_limit": 21000,
          "gas_price_wei": 1000000000,
          "input": "0x",
          "raw_tx": "0x02f87583012cc901843b9aca00843b9aca0082520894cd6b0c718dc5c38c2bfb65c9fcff551c0948248e880de0b6b3a764000080c001a0a146bcc911cdbcae76352b5c9052696e09f91819a66fc3a5ca2a6b75e066ace9a02a3bd6aa74b7fb87c56347230566fc095c4d3799bab37ae0af746add209775da",
          "evm_type": 2,
          "gas_fee_native": 2.1e-05
        },
        {
          "type": "payment",
          "sender": "SYSTEM",
          "recipient": "Wb19888885482587a3e3fb841f27e6a02019cbe50",
          "amount": 25.000021,
          "timestamp": 1772915944.6024299,
          "id": "bac53b4159cd4c3a29accf92bf9619abc5699c252afe855095b28cc01abc6c6c"
        }
      ],
      "previous_hash": "8270ecb79295d2433a352bb85e5432bda26ee3ccd407134383945dd535dd1827",
      "nonce": 0,
      "meta": {
        "consensus": "poa",
        "validator": "Wb19888885482587a3e3fb841f27e6a02019cbe50"
      },
      "hash": "fa1810292a1d69b13e4ac4be296a1dba62057e7eae04423c15a85c6ef40b42b3"
    },
    {
      "index": 10,
      "timestamp": 1772918157.49714,
      "transactions": [
        {
          "type": "payment",
          "sender": "Wb19888885482587a3e3fb841f27e6a02019cbe50",
          "recipient": "EVM:0x652a0c91cd253cbefff5b28599276b62497b3f57",
          "amount": 5.0,
          "timestamp": 1772918152.693161,
          "id": "d8fb8c2b5d6e67076f6e06246c041f01906d903e0bfb2a46f7af658f18cf8b6d",
          "pubkey": {
            "kty": "ed25519",
            "key": "GJEXAKGlJR+/VlEOmIqv4gLAoOzw0vneX3QO36/lSvM="
          },
          "signature": "bNMFa1NgC9soB1drxZsVHgiLHGrXWVxE06SfLFOmqkNxGDB4Maqu5sREqGl44S/I3hgnKHiq0hQHvW/sR5QCDw=="
        },
        {
          "type": "payment",
          "sender": "SYSTEM",
          "recipient": "Wb19888885482587a3e3fb841f27e6a02019cbe50",
          "amount": 25.0,
          "timestamp": 1772918157.496475,
          "id": "03b4d3006563cc229386ac8630b819d82c039e3d0272cfcd8d765e8f1a3b8388"
        }
      ],
      "previous_hash": "fa1810292a1d69b13e4ac4be296a1dba62057e7eae04423c15a85c6ef40b42b3",
      "nonce": 0,
      "meta": {
        "consensus": "poa",
        "validator": "Wb19888885482587a3e3fb841f27e6a02019cbe50"
      },
      "hash": "71ab81ea82d8b3238461437b78c71287e1a5eb2cb1b1d71ce6b87f20ca75f0db"
    }
  ],
  "pending_transactions": []
}